{
  "contractName": "BetaToken",
  "abi": [
    {
      "constant": true,
      "inputs": [],
      "name": "totalSupply",
      "outputs": [
        {
          "name": "",
          "type": "uint256"
        }
      ],
      "payable": false,
      "stateMutability": "view",
      "type": "function"
    },
    {
      "inputs": [],
      "payable": false,
      "stateMutability": "nonpayable",
      "type": "constructor"
    }
  ],
  "bytecode": "0x608060405234801561001057600080fd5b50620f4240600081905550609e806100296000396000f300608060405260043610603f576000357c0100000000000000000000000000000000000000000000000000000000900463ffffffff16806318160ddd146044575b600080fd5b348015604f57600080fd5b506056606c565b6040518082815260200191505060405180910390f35b600054815600a165627a7a7230582067776594cd14454572ed70a161d4e3d8d58777068cab884ca1c995e3bf18a50b0029",
  "source": "pragma solidity ^0.4.23;\r\n\r\ncontract BetaToken {\r\n    //constructor\r\n    //set the total number of token\r\n    //read the total number of token\r\n    uint256 public totalSupply;\r\n    constructor() public {\r\n        totalSupply = 1000000;\r\n    }\r\n}",
  "sourcePath": "D:\\ethereum\\ethereum\\tokensale\\contracts\\BetaToken.sol",
  "compiler": {
    "name": "solc",
    "version": "0.4.24+commit.e67f0147.Emscripten.clang"
  },
  "schemaVersion": "2.0.1",
  "updatedAt": "2018-10-25T08:43:38.653Z"
}