{
  "contractName": "BetaToken",
  "abi": [
    {
      "constant": true,
      "inputs": [],
      "name": "totalSupply",
      "outputs": [
        {
          "name": "",
          "type": "uint256"
        }
      ],
      "payable": false,
      "stateMutability": "view",
      "type": "function"
    },
    {
      "inputs": [
        {
          "name": "_initalSupply",
          "type": "uint256"
        }
      ],
      "payable": false,
      "stateMutability": "nonpayable",
      "type": "constructor"
    }
  ],
  "bytecode": "0x608060405234801561001057600080fd5b506040516020806100e7833981018060405281019080805190602001909291905050508060008190555050609e806100496000396000f300608060405260043610603f576000357c0100000000000000000000000000000000000000000000000000000000900463ffffffff16806318160ddd146044575b600080fd5b348015604f57600080fd5b506056606c565b6040518082815260200191505060405180910390f35b600054815600a165627a7a72305820ce90a269008c8c15b48fad9655bd7b49ff37136e7d01e78150108a1a819b0ac60029",
  "source": "pragma solidity ^0.4.23;\r\n\r\ncontract BetaToken {\r\n    //constructor\r\n    //set the total number of token\r\n    //read the total number of token\r\n    uint256 public totalSupply;\r\n    constructor(uint256 _initalSupply) public {\r\n        totalSupply = _initalSupply;\r\n    }\r\n}",
  "sourcePath": "D:\\ethereum\\ethereum\\tokensale\\contracts\\BetaToken.sol",
  "compiler": {
    "name": "solc",
    "version": "0.4.24+commit.e67f0147.Emscripten.clang"
  },
  "schemaVersion": "2.0.1",
  "updatedAt": "2018-10-25T10:24:13.514Z"
}